:020000040000fa
:080000000002040000000000f2
:020000040000fa
:040008001c050000d3
:020000040000fa
:04000c001c050000cf
:020000040000fa
:040010001c050000cb
:020000040000fa
:040014001c050000c7
:020000040000fa
:040018001c050000c3
:020000040000fa
:04001c001c050000bf
:020000040000fa
:040020001c050000bb
:020000040000fa
:040024001c050000b7
:020000040000fa
:040028001c050000b3
:020000040000fa
:04002c00500400007c
:020000040000fa
:040030001c050000ab
:020000040000fa
:040034001c050000a7
:020000040000fa
:040038001c050000a3
:020000040000fa
:04003c001c0500009f
:020000040000fa
:040040001c0500009b
:020000040000fa
:040044001c05000097
:020000040000fa
:040048001c05000093
:020000040000fa
:04004c001c0500008f
:020000040000fa
:040050001c0500008b
:020000040000fa
:040054001c05000087
:020000040000fa
:040058001c05000083
:020000040000fa
:04005c001c0500007f
:020000040000fa
:040060001c0500007b
:020000040000fa
:040064001c05000077
:020000040000fa
:040068001c05000073
:020000040000fa
:04006c001c0500006f
:020000040000fa
:040070001c0500006b
:020000040000fa
:04007400f202000094
:020000040000fa
:040078001c05000063
:020000040000fa
:04007c001c0500005f
:020000040000fa
:040080001c0500005b
:020000040000fa
:040084001c05000057
:020000040000fa
:040088001c05000053
:020000040000fa
:04008c001c0500004f
:020000040000fa
:040090001c0500004b
:020000040000fa
:040094001c05000047
:020000040000fa
:040098001c05000043
:020000040000fa
:04009c001c0500003f
:020000040000fa
:0400a0001c0500003b
:020000040000fa
:0400a4001c05000037
:020000040000fa
:0400a8001c05000033
:020000040000fa
:0400ac001c0500002f
:020000040000fa
:0400b0001c0500002b
:020000040000fa
:0400b4001c05000027
:020000040000fa
:0400b8001c05000023
:020000040000fa
:0400bc001c0500001f
:020000040000fa
:0400c0001c0500001b
:020000040000fa
:0400c4001c05000017
:020000040000fa
:0400c8001c05000013
:020000040000fa
:0400cc001c0500000f
:020000040000fa
:0400d0001c0500000b
:020000040000fa
:0400d4001c05000007
:020000040000fa
:0400d8001c05000003
:020000040000fa
:0400dc001c050000ff
:020000040000fa
:0400e0001c050000fb
:020000040000fa
:0400e4001c050000f7
:020000040000fa
:0400e8001c050000f3
:020000040000fa
:0400ec001c050000ef
:020000040000fa
:0400f0001c050000eb
:020000040000fa
:0400f4001c050000e7
:020000040000fa
:0400f8001c050000e3
:020000040000fa
:0400fc001c050000df
:020000040000fa
:040100001c050000da
:020000040000fa
:040104001c050000d6
:020000040000fa
:040108001c050000d2
:020000040000fa
:04010c001c050000ce
:020000040000fa
:040110001c050000ca
:020000040000fa
:040114001c050000c6
:020000040000fa
:040118001c050000c2
:020000040000fa
:04011c001c050000be
:020000040000fa
:04012000c802000011
:020000040000fa
:040124001c050000b6
:020000040000fa
:040128001c050000b2
:020000040000fa
:04012c001c050000ae
:020000040000fa
:040130001c050000aa
:020000040000fa
:040134001c050000a6
:020000040000fa
:040138001c050000a2
:020000040000fa
:04013c001c0500009e
:020000040000fa
:040140001c0500009a
:020000040000fa
:040144001c05000096
:020000040000fa
:040148001c05000092
:020000040000fa
:04014c001c0500008e
:020000040000fa
:040150001c0500008a
:020000040000fa
:040154001c05000086
:020000040000fa
:040158001c05000082
:020000040000fa
:04015c001c0500007e
:020000040000fa
:040160001c0500007a
:020000040000fa
:040164001c05000076
:020000040000fa
:040168001c05000072
:020000040000fa
:040208001c050000d1
:020000040000fa
:04020c001c050000cd
:020000040000fa
:040210001c050000c9
:020000040000fa
:040214001c050000c5
:020000040000fa
:040218001c050000c1
:020000040000fa
:04021c001c050000bd
:020000040000fa
:040220001c050000b9
:020000040000fa
:040224001c050000b5
:020000040000fa
:040228001c050000b1
:020000040000fa
:04022c001c050000ad
:020000040000fa
:040230001c050000a9
:020000040000fa
:040234001c050000a5
:020000040000fa
:040238001c050000a1
:020000040000fa
:04023c001c0500009d
:020000040000fa
:040240001c05000099
:020000040000fa
:040244001c05000095
:020000040000fa
:040248001c05000091
:020000040000fa
:04024c001c0500008d
:020000040000fa
:040250001c05000089
:020000040000fa
:040254001c05000085
:020000040000fa
:040258001c05000081
:020000040000fa
:04025c001c0500007d
:020000040000fa
:040260001c05000079
:020000040000fa
:040264001c05000075
:020000040000fa
:040268001c05000071
:020000040000fa
:04026c001c0500006d
:020000040000fa
:040270001c05000069
:020000040000fa
:040274001c05000065
:020000040000fa
:040278001c05000061
:020000040000fa
:04027c001c0500005d
:020000040000fa
:040280001c05000059
:020000040000fa
:040284001c05000055
:020000040000fa
:040288001c05000051
:020000040000fa
:04028c001c0500004d
:020000040000fa
:040290001c05000049
:020000040000fa
:040294001c05000045
:020000040000fa
:040298001c05000041
:020000040000fa
:04029c001c0500003d
:020000040000fa
:0402a0001c05000039
:020000040000fa
:0402a4001c05000035
:020000040000fa
:0402a8001c05000031
:020000040000fa
:0402ac001c0500002d
:020000040000fa
:0402b0001c05000029
:020000040000fa
:0402b4001c05000025
:020000040000fa
:0402b8001c05000021
:020000040000fa
:0402bc001c0500001d
:020000040000fa
:0402c0001c05000019
:020000040000fa
:0402c4001c05000015
:020000040000fa
:0402c8001c05000011
:020000040000fa
:0402cc001c0500000d
:020000040000fa
:0402d0001c05000009
:020000040000fa
:0402d4001c05000005
:020000040000fa
:0402d8001c05000001
:020000040000fa
:0402dc001c050000fd
:020000040000fa
:0402e0001c050000f9
:020000040000fa
:0402e4001c050000f5
:020000040000fa
:0402e8001c050000f1
:020000040000fa
:0402ec001c050000ed
:020000040000fa
:0402f0001c050000e9
:020000040000fa
:0402f4001c050000e5
:020000040000fa
:0402f8001c050000e1
:020000040000fa
:0402fc001c050000dd
:020000040000fa
:040300001c050000d8
:020000040000fa
:040304001c050000d4
:020000040000fa
:040308001c050000d0
:020000040000fa
:04030c001c050000cc
:020000040000fa
:040310001c050000c8
:020000040000fa
:040314001c050000c4
:020000040000fa
:040318001c050000c0
:020000040000fa
:04031c001c050000bc
:020000040000fa
:040320001c050000b8
:020000040000fa
:040324001c050000b4
:020000040000fa
:040328001c050000b0
:020000040000fa
:04032c001c050000ac
:020000040000fa
:040330001c050000a8
:020000040000fa
:040334001c050000a4
:020000040000fa
:040338001c050000a0
:020000040000fa
:04033c001c0500009c
:020000040000fa
:040340001c05000098
:020000040000fa
:040344001c05000094
:020000040000fa
:040348001c05000090
:020000040000fa
:04034c001c0500008c
:020000040000fa
:040350001c05000088
:020000040000fa
:040354001c05000084
:020000040000fa
:040358001c05000080
:020000040000fa
:04035c001c0500007c
:020000040000fa
:040360001c05000078
:020000040000fa
:040364001c05000074
:020000040000fa
:040368001c05000070
:020000040000fa
:10040000cf8f20000eff20000e01880000000000aa
:10041000000020000000e000020032000001200087
:100420002002880014000700c70107000000e00058
:1004300003003a00a015210001002000020037004f
:100440000000200001002000810f70000100320038
:1004500014000700000020000000e000020032004d
:10046000000002000000000048120200000000002e
:100470000040da000000fe004440a900800820008f
:100480000000e0000300320000002000a00188000e
:100490004440a800000006008a1f78008b1f7800e7
:1004a0000000060091018800800478000000eb0045
:1004b0001a003700e284440032a0b4009905ba0063
:1004c000e284440032a0b4009906ba00e2844400f9
:1004d00032a0b4000006eb00476fde00fd07b2005b
:1004e000636ce10003003a00ebff07000000eb0043
:1004f0000a003700606ce10004003a00005deb0088
:100500008b05e900fdff3e00040037006168e10053
:10051000010032000086eb000b00070019c7ba008b
:100520001905ba000e04e00003003a000a00e000da
:10053000e0ff3a0000000600fe07b2009e018800be
:100540008a047800f5ff3700395dba008b05e900b1
:100550000c003200295dba008b05e900080032006a
:100560000c00e00003003a00e284440032a0b40032
:10057000f5ff370019ddba008b05e900faff3a00f4
:100580008904e800e184440032a0b40000000600c1
:100590003600f800809fbe00829fbe00849fbe0090
:1005a000869fbe0088050700e14f500004003a0016
:1005b0008e0507000000e800920507000706070007
:1005c0000060fe008bc0a9000140fe004f03be008a
:1005d0004f02be004f01be004f00be003600f900c2
:1005e000004006003600f800809fbe00829fbe00db
:1005f000849fbe00869fbe00881f78000071220085
:1006000001002000b1070700cb22ab0064003a00d4
:1006100068862000184478000804fb005f05070086
:100620000080fb00800f540029003d0057060700a2
:1006300066c8bf000000fb00801fe80060cb2800f8
:10064000801f78007086200040010700728620001d
:100650008040eb0001407800a706070066c8bf0095
:1006600050050700a2c0b3000440bc0090882800d9
:100670000010b800c508de00c4032000048ab900d9
:10068000841f5100811f780060cc2800801f7800f3
:10069000708620002d0107007286200011c0b30073
:1006a0000040eb009406070047050700ea87570063
:1006b000e14f500004003a0040c0b3004405070079
:1006c000c60507005d0507006668ec0054003700aa
:1006d0006648e20008003a00300507000004e00028
:1006e00005003a003a050700bc050700ba040700f8
:1006f000560507004a003700688620001844780035
:100700000804fb00250507000080fb00800f540053
:100710000a0035002c050700e44f500007003a009e
:100720006668ef0010c0b300290507009f050700a9
:10073000a90407003d05070039003700688620003e
:10074000184478000804fb00140507000080fb0033
:10075000800f5400320035001b050700e14f5000a8
:100760002f0032006668ef0010c0b30018050700c4
:100770003a070700290507000000eb0021050700e4
:100780000040eb00170507003405070010c0b30058
:10079000f20407009004070024050700200037003a
:1007a000cb82ab0005003a00b6040700cca2a8003b
:1007b000c442a800c462a80019003700cba2ab0055
:1007c00008003a0000050700e14f500014003a000d
:1007d00030c0b300fe0407008005070017050700be
:1007e0000f003700cba2ab000d003200f60407006b
:1007f000e34f500005003a0010c0b300f4040700b6
:100800006a0507000905070005003700ee04070028
:10081000e14f500002003200cce2a900ccc2a90096
:10082000cbc2ab0006003a00cba2ab0007003a00f7
:10083000ccc2ab0005003a00cce2a80003003700b0
:10084000cba2ab0001003a00cce2a900ca02e20050
:1008500006003500cba2ab0007003a00cce2ab00ab
:1008600005003a00ccc2a80003003700cba2ab00c1
:1008700001003a00ccc2a9000060fe008660a90019
:100880000140fe004f0478004f03be004f02be003f
:100890004f01be004f00be003600f90000400600c8
:1008a0003600f800809fbe00829fbe00849fbe007d
:1008b000869fbe00889fbe0068862000184478008e
:1008c0000804e00028003a00b40407000084fb009c
:1008d000cb02ab00020032000884e80001003700c0
:1008e0000884e900fe0f540003003c000800e0000b
:1008f00004003d00020037000004eb000100370057
:10090000e801200008407800a2040700ae040700b8
:10091000e14f500009003a0040c0b300ac040700aa
:100920002e050700c50407009805070032cd2800f2
:100930008040eb0001407800ef050700881f780039
:1009400070ce2800801f7800708620007f0007008e
:100950007286200011c0b30060c0b300e605070036
:10096000e48757002a0037008c0407000804fb00c6
:100970000080fb00800f540025003c0066c8bf00cb
:10098000230032000040e900860407000084fb00d9
:10099000cb02ab00020032000804e800010037007f
:1009a0000804e90020062000800f540003003c00ea
:1009b0000800e00004003c0002003700180020009e
:1009c00001003700280620006648ed0088407800c6
:1009d000790407006a44b900c2032000110009002d
:1009e0000204d800811f7800801f780060cc2800a6
:1009f000801f780070862000540007007286200057
:100a000011c0b3000040eb00bb050700e6875700ac
:100a10000060fe008420a9000140fe004f04be00db
:100a20004f03be004f02be004f01be004f00be008c
:100a30003600f900004006000040da000000fe0029
:100a40000a00fa00e20f500034003e00d047800058
:100a5000e10f500003003200e20f500011003a0095
:100a60000c003700032220000300e00001003a00e0
:100a70000040da002002e200020035002822ef00e8
:100a800021e2a8002342ab000d003a002342a80057
:100a90000b003700032320000300e00001003a00b0
:100aa0000040da003002e200020035003822ef0098
:100ab00031e2a8003342ab0001003a003342a80003
:100ac000820178000b0037003102fb00e10f50007b
:100ad00004003a002322ab00feff3a0024118800f4
:100ae000030037003322ab00feff3a00a411880058
:100af0008301e9000300e000f3ff3a00e10f50003a
:100b000003003a002302ab00feff32000b00370067
:100b10003302ab00feff3200080037003300200034
:100b2000b3bf9f00c0bf9f00d1bf9f00e2bf9f0027
:100b30006a8057004c0307006fb9970002007800e5
:100b40000080fa0000000600000005000c00fa001a
:100b5000889fbe0000047800f0ff2700d0bf9f00f0
:100b60008004eb0099bf9f0088bf9f00a8bf9f0033
:100b7000200c2000b0bf9f0078815700cfb09700b5
:100b800070805700100007000fb8970009487800e0
:100b90008fb89700088050004f04be000080fa0014
:100ba00000000600d0019000028151004240a900df
:100bb0000300340010017800014978000208e800c1
:100bc0000100780000000600f6874700889fbe00fd
:100bd0008a9fbe008c9fbe008e1f780000057800a3
:100be000a1b79f00020778008004eb009002370055
:100bf000afb097008100e800a1b79f0051c2b300d9
:100c0000814f500003003a00afb097000004eb00a2
:100c100011003700ba0090000000fb000168a3003b
:100c20000700320009017800800078000a0078008f
:100c3000dcff07000000e00005003a007c023700fe
:100c40008a00780086020700e10f40007802320037
:100c50008904e8007602370001007800314178000d
:100c6000d3c2b300834f51000c00320007003c0098
:100c7000edc15100834f51000a003200ebc1410029
:100c8000834f51000d003a000800370003c3b30042
:100c9000834f510009003a00060037000830a000d9
:100ca000edff37000800a000ebff37000810a000a0
:100cb000e9ff37000820a000e7ff37000818a3006d
:100cc000010032000800a1000838a3000100320032
:100cd0000820a1008200fb000103b100e98f500051
:100ce0000c003e00000178008000eb006a08b900ab
:100cf000b201fb000303b1008080410002007800d4
:100d00009201fb000303b100e98f5100f7ff3600a9
:100d1000060037008000eb00a3c2b300834f5100f0
:100d200002003a00ce0078000000e8008005eb00e9
:100d3000e2c2b300904f110009003a0008e0a000a1
:100d400064415100d04f11000300320000017800cf
:100d50000102780006003700ce0578000000e800a8
:100d600000017800090037006a58b9008085410009
:100d700002007800b201fb000303b100e98f5100cb
:100d8000f9ff360084007800f5ff37003240780024
:100d9000a2b79f00c3c6b300834f500025003200a6
:100da0000f003c0032c6b300824f50008800320072
:100db00004003c000004e000220232006b415100bc
:100dc0000f00370042c6b300824f500017003200b8
:100dd00065414100824f500094003a0013003700f3
:100de00032c7b300824f50001b00320007003c00a6
:100df00064415100824f5000100032000241e8006f
:100e0000824f500089003a000f00370052c7b300ec
:100e1000824f50008a00320063414100824f5000ef
:100e200082003a00e0df9f0009003700e0df9f000a
:100e3000850037000840a000d4ff3700e0df9f00a6
:100e40000860a00080003700e0df9f000850a0008d
:100e50000870a0007c003700e0df9f004e007800a3
:100e6000000678000000e00001003a00ec89200054
:100e70000c0178000000eb00010037000000e800e2
:100e8000e24178000304e000fcff3a0080067800ad
:100e90000b00e000030032008d8f5500010031008f
:100ea0008b0678008005eb008d8f50000100360026
:100eb0008d855000680464002a003a001100370054
:100ec0003a0090000068a300070032000901780092
:100ed000010220000a00780032ff07000000e00055
:100ee00006003a00060037008a0078000002200061
:100ef000db010700e10f4000010032008904e80037
:100f00008b05e9000b00e000edff3a008085eb0067
:100f1000140037003a0090000068a3000900320076
:100f20000c007800b000fb00000678000901780092
:100f30000a0078001bff07000000e00008003a00ec
:100f4000080037008c0078003100fb0001067800b3
:100f50008a007800c2010700e10f40000100320062
:100f60008904e8000d0078008006e9000000e00038
:100f7000e8ff3a000800e000ad0132001100370040
:100f80003a0090000068a3000700320009017800d1
:100f9000010220000a00780002ff07000000e000c4
:100fa00006003a00060037008a00780000022000a0
:100fb000ab010700e10f4000010032008904e800a6
:100fc0008b05e9000b00e000edff3a0098013700c7
:100fd0004e017800cf91de00c81ade004818dd000f
:100fe0004812de0004027000e4df9f000848a300fe
:100ff000080032000404e00006003200e14f420025
:1010000004003200f4df9f0082e79f002d002000e3
:1010100002003700f2df9f001d002000e2fd2f00dc
:101020000f0141000206e80099ff3700e0df9f0052
:10103000ecfd2f000f0646001d00200094ff370036
:10104000e0df9f00080cb30008017800020cb2003a
:10105000700064000200e0000d003a000000e000b3
:10106000020032004e06be00020037004e06780035
:10107000cfe6de00e00f5600e08f5e000a003d0084
:101080003800b30060061600e0861e000600370038
:101090000000e000020032004e06be0002003700f1
:1010a0004e0678008006eb000b00e00005003a00d9
:1010b0008c8576000bf0a7008b05ea008b05e90014
:1010c000cf5dde0088017800030cb200e3b79f001b
:1010d00000042000808f51002300320003003c00f8
:1010e0000300e000080032002d0037000008200057
:1010f0006fb29700800f52000d003200000c2000ec
:10110000800f520026003a00628a200010c0b3000f
:1011100064014100b20f5600a28f5e001f0039002b
:101120000040e800ea4f5000f9ff3a001b0037008a
:1011300010c0b3000201200003002000820f5600ff
:10114000838f5e0015003900441add00cc11de00eb
:10115000830172004411dd000040e800e84f5000b8
:10116000f6ff3a000d00370010c0b30082002000e7
:1011700003002000820f5600838f5e0007003900b5
:10118000431add00cd11de00830172004311dd0042
:101190000040e800eb4f5000f6ff3a00e0df9f0010
:1011a0006fd997000200fb008b0f500002003d003a
:1011b000ebdf9f0003003700808f550001003d00ea
:1011c000800578000100e000030032006300640045
:1011d000010032008100e90008e8a30005003200a8
:1011e0008b8f5000020034008b80500001003700cc
:1011f0008000eb00efd997000300fb000002eb003a
:10120000d4b79f00808f500002003400008050004f
:10121000d0b79f000828a30040003200610164009d
:101220000818a3000f0032003a0090000068a300e5
:1012300006003200b10220000200e000010032008e
:101240008180e800090178000d003700b00220001d
:101250000200e000010032000080e8008a0078000f
:101260000e0037000200e000100032003a0090004b
:101270000068a30007003200090178000102200085
:101280000a00780047fe07000000e00006003a0070
:10129000060037008a00780000022000f0000700f6
:1012a000e10f4000010032008904e8005fb09700c0
:1012b0000000e0005a003200bcb79f00cdb79f008d
:1012c000800678003a0090000068a3000700320012
:1012d00009017800010320000a00780031fe0700b0
:1012e0000000e00006003a00060037008a0078009f
:1012f00000032000da000700e10f40000100320087
:101300008904e8008d06e900eeff3a00ddb79f0092
:101310003fb69700cfb6970041003700dfb1970086
:101320000300e0001a0032000838a30018003a0059
:10133000bcb79f00cdb79f00830678003a009000ad
:101340000068a300070032000901780001022000b4
:101350000a00780013fe07000000e00006003a00d3
:10136000060037008a00780000022000bc00070059
:10137000e10f4000010032008904e8008d06e90019
:10138000eeff3a00ddb79f003fb69700cfb697005b
:10139000610164000818a3000f0032003a009000b9
:1013a0000068a30006003200b10220000200e00045
:1013b000010032008180e800090178000d0037004b
:1013c000b00220000200e000010032000080e800ce
:1013d0008a0078000e0037000200e00010003200a2
:1013e0003a0090000068a30007003200090178006d
:1013f000010220000a007800eafd07000000e0007a
:1014000006003a00060037008a007800000220003b
:1014100093000700e10f4000010032008904e8005a
:101420000b03e9006330b90000017800b2b79f00f8
:101430004233dd00608a2000000343008e01780003
:1014400093b79f0008077800060478005c00370017
:101450008b05e900000420006fb29700800f520056
:101460003800320003003c000400e00008003200b5
:101470003e00370000082000efb09700808f50003a
:1014800020003200000c2000808f500037003a000e
:101490000e48a300100032001802be000401be0076
:1014a0000c00be00f4b79f0085bf9f00f00007004e
:1014b000e0df9f000000fb00cf80de007fb29700de
:1014c0008fba97000401be00f9000700000656001d
:1014d00081865e00070037001801780011000900be
:1014e0000286d800a2002000110009000280d80066
:1014f000e1df9f006fd997000243b000e2df9f0059
:101500001a003700d08820000e58a30001003200d6
:10151000c0872000618a2000810054000c01be00b9
:101520008100e900030033008301d1000281d30070
:10153000fbff3700ef006100e0c07800e1df9f00b3
:101540000a0037000c00be00bfb197008301e9001c
:10155000030033008100d1000080d300fbff37007f
:10156000674060000043b000e0df9f00ba009000d9
:101570006fda97000400fb000168a3000700320047
:1015800009017800800078000a00780085fd0700d6
:101590000000e00005003a00050037008a007800ee
:1015a0002f000700e10f4000010032008904e8002d
:1015b0003fb0970063005000b0b79f006404540030
:1015c0000b00e000a2ff3a000e0478001fb797005e
:1015d0000838a30016003200dfb097000100e000d9
:1015e00013003400010478003a0090000068a30062
:1015f0000700320009017800010220000a0078008b
:1016000068fd07000000e00006003a000600370011
:101610008a0078000002200011000700e10f40005e
:10162000010032008904e8000804e900eeff3a00f6
:101630002fb1970012407800e0df9f000004e00027
:101640006bfd3a00090078004f0778004f06be0096
:101650004f05be004f04be006f01b1000000060040
:10166000889fbe0001047800b80090008084eb00e1
:101670000118a3003a003200180190000198a3005d
:1016800002003a000200e00035003a000190a0009c
:101690003104980080047800f90fb2000200e000e5
:1016a00002003a0028009000000c7800ea8f5400f5
:1016b00005003a000178a30003003a008800780092
:1016c000d0002000e6ff070018009000d80090002e
:1016d000810f50000b0032000000e8001004980059
:1016e0001800780009487800000ce80011c0b30029
:1016f000408f200001487800ea8f540018003a001b
:1017000005003700880078000940780017000700be
:101710008004780012003700380090000088a30091
:101720000f00320018019000a800900048009000bf
:10173000c3fc070098009000810f500004003200a5
:10174000380090000003b300300498008084eb0060
:101750000000eb001004980028009000000c7800b6
:10176000090078004f04be00000006000200fa00e5
:10177000889fbe00a0ff9f00010478003800900001
:101780000068a30033003a00e200600005003a0060
:101790000003b30030049800110498000080eb00af
:1017a0002e003700d80490000900e00006003a003f
:1017b00012002000e680570048009000a0fc0700bf
:1017c0001904980023003700a80090000100e000f1
:1017d00008003a00718f200021049800010c780065
:1017e0002100200051049800110498000030a0004e
:1017f0003004980018019000a80090004800900064
:101800008ffc0700280090008080eb0011049800f6
:10181000aff8970001487800000ce8002ff8970017
:10182000ea4f50000b003a00380090000088a300f7
:101830000800320018019000a800900048009000b5
:101840007ffc07000000eb0010049800a800900047
:10185000010c7800aff897000100fb004f04be00b8
:101860000080fa000000060000c0da000000060058
:101870006022b800060220000000d0008180d20063
:101880000482d2008582d2000000a0000202520031
:1018900083825a00030031000202420083824a0020
:1018a0000000a1000603e900f3ff3a000000060073
:1018b000020ab900001bb9000200b8008100420012
:0818c000810043000000060056
:020000040000fa
:1018c8004e6f00006d620000726500002064000029
:1018d8006520000063790000636c000065730000f8
:1018e800203a0000200000002532000064000000bb
:1018f8002020000043790000636c00006520000090
:1019080025320000642f000025320000642000000a
:101918002000000020250000326400006825000037
:10192800326400006d2000002f25000032640000a2
:1019380068250000326400006d20000020000000cf
:1019480020200000466900006e200000747200002c
:10195800656d0000706100006765000020200000d0
:1019680000000000202000002043000079630000f0
:101978006c6500002025000032640000203a000059
:101988002000000020200000202000002532000058
:101998006468000025320000646d0000004e0000fd
:1019a8006f6d000062720000652000006465000031
:1019b80020630000796300006c650000732000005c
:1019c8003a200000002500003264000000000000fa
:020000040000fa
:1019d800889fbe008a1f78001180200091407800ff
:1019e800c808dd0000c8bf000080fb008080400000
:1019f80000e02f00740207001140800020e02f0053
:101a0800710207002140800040e02f006e020700ad
:101a18004ae02f000880200049e22f000a85e800ec
:101a28000800450011202000808040009180fb00c4
:101a3800c808dd000020b0001080fb008080400056
:101a48000a00780060020700890f5500f3ff3a008a
:101a58004882200049e62f000a85e800d80078006f
:101a68000a00780058020700890f5500faff3a006b
:101a78004f0578004f04be00000006000068ef0024
:101a88000168ef000228ef000428ef0050802000d2
:101a9800ff0040000102e8008041eb000001eb007c
:101aa8000368780082287800840f5000fcff3a0011
:101ab800c7ff070000000600889fbe008a1f780045
:101ac80000e02f003b02070000e8b7004800de00f6
:101ad80001e8b70020e02f00360207001040880018
:101ae80040e02f00330207002040880048e02f0024
:101af800098020004ae22f000884e80008007800e6
:101b08002c02070089004400022020000101410046
:101b1800004978001120b0004800de0080487800b5
:101b28008a0f5400f4ff3a00498220004ae62f0049
:101b38000884e800080078001e020700802c78005e
:101b48008a0f5400faff3a004f0578004f04be0090
:101b5800000006000004e00002003a00cce2a90000
:101b680002003700ccc2a900cce2a80000000600a1
:101b78000004e00002003a00ccc2a90002003700cd
:101b8800cce2a900ccc2a8000000060000e8b7001b
:101b98000000060000c8bf00000006000080fb002f
:101ba80066004000018020006140780000000600c7
:101bb8000080fb00628020000171780000000600b0
:101bc80004c8bf00000006000080fb002040880019
:101bd8000000060001c8bf000000060001e8b700c9
:101be8000000060010408000730040000000400024
:101bf800018020006100780000000600114080008c
:101c0800f3804000818040000280200000b178000d
:101c18000000060010408800000006001040800008
:101c280000000600cca2a800c442a900c462a90012
:101c380000000600cca2a900c442a900c462a80002
:101c480000000600cca2a900c442a800c462a900f2
:101c5800000006001400fa00881f78002040800069
:101c6800e10f500013003200c600070042c62800ea
:101c78008040eb00014078001d01070000c8bf004c
:101c88000080fb00801f780080c72800801f780034
:101c98007a805700abfb07007a81570011c0b30068
:101ca80060c0b300120107001d010700e487570058
:101cb80030003700b300070000c8bf000080fb00f9
:101cc800801f780001c8bf000080fb00801fe8006b
:101cd800c0c72800801f78007c80570099fb070048
:101ce8007c8157008040eb0001407800000107002c
:101cf80001c8bf000080fb00660040000180200092
:101d080061407800a2c0b3000440bc00020478001f
:101d1800b4ff0700918828000141b800c519de000a
:101d2800c2032000029ab900841f5400831f780060
:101d38000102b800c528de000289b900821f5000e0
:101d4800811f7800e0c82800801f7800a0fd2f00c0
:101d58000f0040007bfb0700a2fd2f000f01410090
:101d680011c0b3000040eb00e1000700ef000700de
:101d7800f087570020408000e20f500006003a002c
:101d8800b0ff07007f00070042ca28008040eb0030
:101d980001407800d60007004f0478000080fa0060
:101da800000006008bff07000008a30004003a00ab
:101db80010c0b30067ff07009aff07000300370051
:101dc80010c0b3006aff070096ff0700a1ff0700d5
:101dd80000000600889fbe0079ff0700e14f500011
:101de80037003a007fff07008004780079ff07007a
:101df800004478000840780068ff0700a2c0b300dc
:101e08000440bc00828f54001e0039000840e800de
:101e180072ff07000000eb0078ff07006dff070066
:101e2800004478005bff0700804f54000d00390024
:101e380020c0b30064ff070086ff07000000eb0026
:101e48006eff07000040eb0064ff07000040eb0056
:101e580040ff07000040eb0045ff0700dcfe0700dd
:101e68001b0037000808a30003003a0010c0b300a5
:101e780038ff07000200370010c0b3003cff07001e
:101e8800d3fe070073ff070056ff0700d2cc2c00d3
:101e98000201b8004219de006511b900820f500036
:101ea8000b003a001240800002014100a21db1005f
:101eb8008000780002007800430107000400370022
:101ec8000040eb0023ff07000040eb0028ff07005d
:101ed8004f04be00000006000080fb000008a300bd
:101ee80002003200cc02a80001003700cc02a90091
:101ef8000018a30002003200cc22a800010037001d
:101f0800cc22a9000028a30002003200cc42a8007d
:101f180001003700cc42a9000038a30002003200bb
:101f2800cc62a80001003700cc62a9001000200094
:101f38000100200063010700c422a800100020004f
:101f4800010020005f010700c422a900000006006c
:101f5800881f780000447800c402a9000880fb00ac
:101f68004400de00dcff07006f406400daff070072
:101f78002003200001002000520107004f047800d0
:101f88000000060010c0b300f1ff07000064200045
:101f9800010020004b01070000000600006a28002d
:101fa8001100200047010700c402a90030c0b30097
:101fb800c9ff070080382100010020004101070007
:101fc80030c0b300c4ff0700803e2000010020009d
:101fd8003c01070030c0b300bfff0700803e20006f
:101fe800010020003701070020c0b300baff070036
:101ff800803e20000100200032010700c0c0b3006d
:10200800d3ff070060c0b300d1ff070040e7a90075
:102018004087a900dbff070000000600881f780042
:1020280000447800c402a8000800fb004480de00d9
:10203800a9ff07006f406400a7ff070020032000e6
:10204800010020001f0107004f047800000006006f
:10205800889fbe0080047800194078000004e000e2
:10206800070032000044eb00ecff07000844e800da
:102078000880fb00694078000004e000faff3a009d
:102088004f04be000000060012c0b300f04f50001d
:1020980015003e00e2cf500013003e000108a300e7
:1020a8000900320002ccb300024140000180fb006d
:1020b8000000d1007400b90000404100a4ff0700ef
:1020c8000041eb000800370002c8b300024140009d
:1020d8000180fb000000d1007400b90000404100fd
:1020e8009bff07000041eb0002407800000006005b
:1020f800881f780002047800e3ff0700804078001a
:1021080010c0b3000104e00003003a0008007800a2
:10211800cfff07000040eb004f04780000000600e6
:10212800d0c0b3008aff070000000600c0c0b3009b
:1021380087ff070000000600871f7800881f7800c7
:102148000500fc0057052000373b8800a80a20003e
:10215800383b880027a6a8004f047800cf037800f2
:1021680000000600f4ff0700f03f2f002826b60005
:1021780023c6a800f13f2c00103180008080600049
:1021880000c0200001007000103188009bc0a8002a
:10219800f08f2f00c200b6000090a0001006880043
:1021a80023e6a8008bc0a90000000600e2ff070094
:1021b80027e6a80000000600dfff070027e6a900c1
:1021c8000000060063c0a80064a0a80063a0a800df
:1021d8006380a8006360a800f0ff2800ac00b60088
:1021e80000c0a000600588009660a8008660a9006d
:1021f800000006004061ab0003003200200a8000a6
:102208004061ab00fdff3a0000fe2f004221b600fe
:1022180000c021004021b700f0f92f004021b6008e
:1022280042e1a90080ff2f004001b6000010a00085
:10223800000a88009420a800f0f82f00b600b60025
:102248000040a000b00588008420a9000000060016
:10225800e024ef00e224ef00e024ef00e224ef00a6
:10226800c022ef00c222ef00c082a800c0e2a8008e
:10227800c822ef00ca22ef00c882a800c902a8003d
:10228800c922a800c982a800c9a2a800c9c2a8007a
:10229800c9e2a80041ff0700b2ff0700c3ff07001b
:0c22a800c8ff0700d3ff0700000006007d
:020000040000fa
:1022b400660800001600000000000000000800008e
:1022c40066000000000000007c08000052000000ce
:1022d4000200000030313200333435003637380024
:1022e4003941420043444500460030003132330056
:1022f400343536003738390061626300646566003e
:1023040000286e00756c6c002900000001000000bc
:10231400000a00000000640000000000e803000060
:10232400001027000000a0008601000040420f00ba
:102334000080960098000000e1f5050000ca9a00ac
:102344003b000000ce080000260000000200000050
:10235400f508000000f50800090000000002000074
:10236400f708000000f708000e020100000000005a
:10237400000000000000000006020200000000004f
:10238400ce080000f4080000060000000000000071
:10239400fa08000002000000020000000100000032
:0423a4000000000035
:020000040000fa
:1023a800f08f2f004407b6000090a000203a880064
:1023b80000000600f3c7b300220320000349780099
:1023c8001000ba0000000600f4c7b3002303200081
:1023d8008449780082052400023b88000081eb00d4
:1023e8000208bb000500fc0052052000323b8800b3
:1023f800a20a2000323b880061e7a8000000000024
:102408000000000003002800043b800004816100f4
:10241800fdff3a0042002400023b88000108bb008f
:102428000500fc0050052000303b8800a00a200071
:10243800303b880061e7a8000000000000000000b1
:1024480001002800023b800002806000fdff3a0086
:1024580000000600f0cf2f002606b6000090a0006e
:102468003031880021318000010178000203b20078
:102478004411de006a11b900ef80600082804000dc
:102488000100780000000600c5ff0700006a280068
:10249800110020000b0007006dff070086fd0700f4
:1024a800c7fd0700e14f500002003a003dfe07005b
:1024b80001003700e7fd07008660a8000140fe0024
:0424c800ffff3700db
:020000040000fa
:1024cc00f03fb1000180b10006003500ee030900b9
:1024dc0000000000403fb1000180b100fbff3d0057
:1024ec001000b000203fb000020035000080090051
:0824fc000000000000000600d2
:020000040000fa
:0200000400fffb
:10fc000000000000000000000000000000000000f4
:10fc100000000000000000000000000000000000e4
:10fc200000000000000000000000000000000000d4
:10fc300000000000000000000000000000000000c4
:10fc400000000000000000000000000000000000b4
:10fc500000000000000000000000000000000000a4
:10fc60000000000000000000000000000000000094
:10fc70000000000000000000000000000000000084
:10fc80000000000000000000000000000000000074
:10fc90000000000000000000000000000000000064
:10fca0000000000000000000000000000000000054
:10fcb0000000000000000000000000000000000044
:0cfcc00000000000000000000000000038
:020000040000fa
:0200000401f009
:04000000ffff0000fe
:020000040000fa
:0200000401f009
:04000800ffff0000f6
:020000040000fa
:0200000401f009
:04000c007fff000072
:020000040000fa
:0200000401f009
:04001000b3ff00003a
:020000040000fa
:0200000401f009
:04001400ffff0000ea
:020000040000fa
:0200000401f009
:0400180090ff000055
:020000040000fa
:0200000401f009
:04001c00ffff0000e2
:020000040000fa
:0200000401f009
:040020003fff00009e
:00000001FF
